:100000000C942A000C9426020C943C000C943C00A6
:100010000C943C000C943C000C943C000C943C0070
:100020000C943C000C943C000C943C000C943C0060
:100030000C943C000C943C000C943C000C943C0050
:100040000C943C000C943C000C943C000C943C0040
:100050000C943C0011241FBECFE5D8E0DEBFCDBF1D
:1000600020E0A0E6B0E001C01D92A536B207E1F79E
:100070000E9450020C94CD050C94000060E081E4D5
:100080000E94360261E081E40E94360262E081E46F
:100090000E94360260E082E40E94360261E082E45F
:1000A0000E94360262E082E40E94360262E084E44A
:1000B0000E9430020E94700462E080E00E94780496
:1000C00080E00E9441058CE090E00E945D0508956B
:1000D00080916200882321F0813009F48EC0F8CF2E
:1000E00083E08093610060E081E40E943C0262E072
:1000F00082E40E943C0240E054E064E070E085E06D
:1001000090E00E9498058CE090E00E945D0560E020
:1001100081E40E94420282E08093610015C061E0A8
:1001200081E40E944D0240E054E064E070E081E030
:1001300090E00E9498058CE090E00E945D0580911F
:1001400060008F5F8093600080916000853038F39D
:100150001092600062E082E40E94420281E080939B
:10016000610061E081E40E94420262E081E40E9459
:100170003C0260E082E40E943C0240E054E064E023
:1001800070E085E090E00E9498058CE090E00E948D
:100190005D0582E08093610061E081E40E943C02A1
:1001A00060E082E40E94420219C061E081E40E94A2
:1001B0004D0261E082E40E944D0240E054E064E0C0
:1001C00070E081E090E00E9498058CE090E00E9451
:1001D0005D05809160008F5F80936000809160007A
:1001E000853018F31092600061E081E40E944202C1
:1001F00061E082E40E9442026BCF8FB78F778FBF9E
:1002000080916100823009F43FC0833009F4A9C0B5
:10021000813009F012C160E082E40E943C0240E0BB
:1002200054E064E070E085E090E00E9498058CE086
:1002300090E00E945D0562E081E40E94420215C0E8
:1002400061E081E40E944D0240E054E064E070E02F
:1002500081E090E00E9498058CE090E00E945D05AE
:10026000809160008F5F8093600080916000853096
:1002700038F31092600060E082E40E94420261E084
:1002800081E40E944202D9C061E081E40E944202FE
:1002900062E082E40E94420219C061E081E40E94AF
:1002A0004D0261E082E40E944D0240E054E064E0CF
:1002B00070E081E090E00E9498058CE090E00E9460
:1002C0005D05809160008F5F809360008091600089
:1002D000853018F31092600061E081E40E944202D0
:1002E00062E081E40E943C0261E082E40E944202FA
:1002F00060E082E40E943C0240E054E064E070E090
:1003000085E090E00E9498058CE090E00E945D05F9
:1003100062E081E40E94420215C061E081E40E9433
:100320004D0240E054E064E070E081E090E00E9423
:1003300098058CE090E00E945D05809160008F5FE1
:100340008093600080916000853038F310926000E7
:1003500061E081E40E94420260E082E40E94420285
:100360006CC060E081E40E94420262E082E40E948C
:10037000420219C061E081E40E944D0261E082E422
:100380000E944D0240E054E064E070E081E090E0C3
:100390000E9498058CE090E00E945D0580916000CD
:1003A0008F5F8093600080916000853018F3109219
:1003B000600061E081E40E94420262E081E40E9408
:1003C0003C0261E082E40E94420260E082E40E941A
:1003D0003C0240E054E064E070E085E090E00E9480
:1003E00098058CE090E00E945D0562E081E40E9447
:1003F000420215C061E081E40E944D0240E054E0F9
:1004000064E070E081E090E00E9498058CE090E06C
:100410000E945D05809160008F5F809360008091F5
:100420006000853038F31092600061E081E40E9442
:10043000420260E082E40E944202109262000E9446
:10044000700462E080E00E94780442CE1F920F9216
:100450000FB60F92112481E0809362000E94680021
:1004600040E00E945702811181E0089541E00E941E
:100470005702811181E0089541E00E9445038111F6
:1004800081E0089540E00E944503811181E00895D4
:100490000E943304811181E008950E94480208956A
:1004A0000E943E000E94680080E090E0089582343F
:1004B000E9F118F4813441F0CEC0833409F468C006
:1004C000843409F497C0C7C0411117C02AB381E032
:1004D00090E0062E02C0880F991F0A94E2F78095DB
:1004E00082238ABB8AB390E002C0959587956A956E
:1004F000E2F780FDB2C080E00895413009F0AFC05E
:100500002AB381E090E0062E02C0880F991F0A945A
:10051000E2F7822B8ABB8AB390E002C0959587955B
:100520006A95E2F780FF9DC080E00895411117C0F1
:1005300027B381E090E0062E02C0880F991F0A942D
:10054000E2F78095822387BB87B390E002C0959540
:1005500087956A95E2F780FD86C080E00895413076
:1005600009F083C027B381E090E0062E02C0880F17
:10057000991F0A94E2F7822B87BB87B390E002C0F1
:10058000959587956A95E2F780FF71C080E00895A0
:10059000411117C024B381E090E0062E02C0880FFD
:1005A000991F0A94E2F78095822384BB84B390E07C
:1005B00002C0959587956A95E2F780FD5AC080E064
:1005C0000895413009F057C024B381E090E0062E31
:1005D00002C0880F991F0A94E2F7822B84BB84B370
:1005E00090E002C0959587956A95E2F780FF45C037
:1005F00080E00895411117C021B381E090E0062EFC
:1006000002C0880F991F0A94E2F78095822381BB6C
:1006100081B390E002C0959587956A95E2F780FDD9
:100620002EC080E00895413061F521B381E090E073
:10063000062E02C0880F991F0A94E2F7822B81BB15
:1006400081B390E002C0959587956A95E2F780FFA7
:100650001AC080E0089581E0089581E0089580E067
:10066000089581E0089581E0089580E0089581E093
:10067000089581E0089580E0089581E0089581E083
:10068000089580E0089581E008958234E9F118F436
:10069000813441F0CEC0833409F468C0843409F455
:1006A00097C0C7C0411117C02AB381E090E0062E61
:1006B00002C0880F991F0A94E2F7809582238ABBB3
:1006C0008AB390E002C0959587956A95E2F780FD20
:1006D000B2C080E00895413009F0AFC02AB381E094
:1006E00090E0062E02C0880F991F0A94E2F7822B31
:1006F0008ABB8AB390E002C0959587956A95E2F728
:1007000080FF9DC080E00895411117C027B381E0AC
:1007100090E0062E02C0880F991F0A94E2F7809598
:10072000822387BB87B390E002C0959587956A9531
:10073000E2F780FD86C080E00895413009F083C073
:1007400027B381E090E0062E02C0880F991F0A941B
:10075000E2F7822B87BB87B390E002C0959587951F
:100760006A95E2F780FF71C080E00895411117C0DB
:1007700024B381E090E0062E02C0880F991F0A94EE
:10078000E2F78095822384BB84B390E002C0959504
:1007900087956A95E2F780FD5AC080E00895413060
:1007A00009F057C024B381E090E0062E02C0880F04
:1007B000991F0A94E2F7822B84BB84B390E002C0B5
:1007C000959587956A95E2F780FF45C080E008958A
:1007D000411117C021B381E090E0062E02C0880FBE
:1007E000991F0A94E2F78095822381BB81B390E040
:1007F00002C0959587956A95E2F780FD2EC080E04E
:100800000895413061F521B381E090E0062E02C0E9
:10081000880F991F0A94E2F7822B81BB81B390E085
:1008200002C0959587956A95E2F780FF1AC080E02F
:10083000089581E0089581E0089581E0089581E0C0
:10084000089581E0089581E0089581E0089581E0B0
:10085000089581E0089581E0089581E0089581E0A0
:10086000089581E008958234A9F018F4813431F0BC
:1008700035C08334D9F0843429F130C02BB381E002
:1008800090E002C0880F991F6A95E2F782278BBB20
:1008900080E0089528B381E090E002C0880F991F9E
:1008A0006A95E2F7822788BB80E0089525B381E04E
:1008B00090E002C0880F991F6A95E2F7822785BBF6
:1008C00080E0089522B381E090E002C0880F991F74
:1008D0006A95E2F7822782BB80E0089581E008955F
:1008E00078940FB607FE02C080E0089581E0089575
:1008F000813009F452C020F0823009F49AC0B9C0A6
:10090000611111C08FB78F778FBF8BB780648BBF9A
:1009100085B78E7F85BF85B78D7F85BF8FB7806890
:100920008FBF80E00895613089F48FB78F778FBFD4
:100930008BB780648BBF85B7816085BF85B78D7F9E
:1009400085BF8FB780688FBF80E00895623089F4DB
:100950008FB78F778FBF8BB780648BBF85B782606F
:1009600085BF85B78E7F85BF8FB780688FBF80E0DA
:100970000895633009F07FC08FB78F778FBF8BB733
:1009800080648BBF85B7816085BF85B7826085BF76
:100990008FB780688FBF80E00895611111C08FB755
:1009A0008F778FBF8BB780688BBF85B78E7F85BFF2
:1009B00085B7877F85BF8FB780688FBF80E0089538
:1009C000613089F48FB78F778FBF8BB780688BBF0B
:1009D00085B7816085BF85B7877F85BF8FB7806802
:1009E0008FBF80E00895623089F48FB78F778FBF13
:1009F0008BB780688BBF85B7886085BF85B78E7FD2
:100A000085BF8FB780688FBF80E008956330A9F5F8
:100A10008FB78F778FBF8BB780688BBF85B78160AB
:100A200085BF85B7886085BF8FB780688FBF80E03E
:100A30000895623071F48FB78F778FBF8BB7806264
:100A40008BBF84B78F7B84BF8FB780688FBF80E0F8
:100A500008956330A1F48FB78F778FBF8BB7806213
:100A60008BBF84B7806484BF8FB780688FBF80E0FE
:100A7000089581E0089581E0089581E0089581E07E
:100A80000895883081F018F4882331F014C0803440
:100A900031F0883461F00FC013BE80E0089580E427
:100AA00083BF80E0089588E083BF80E0089588E4F4
:100AB00083BF80E0089581E0089582BF80E00895BB
:100AC00080349105C9F030F48130910559F00897D0
:100AD00071F027C0811521E09207B1F08115944093
:100AE000C1F01FC083B7816083BF80E0089583B7E2
:100AF000826083BF80E0089583B7816083BF83B73E
:100B0000826083BF80E0089583B7846083BF80E004
:100B1000089583B7816083BF83B7846083BF80E01B
:100B2000089581E0089583B7887F83BF80E00895AA
:100B30000F931F93CF93DF938C01EB01CA010E94A7
:100B40006005882389F081E023C008B600FEFDCF50
:100B500088B7816088BF809163009091640001969E
:100B60009093640080936300C09FC001C19F900D6B
:100B7000D09F900D112420916300309164002817BC
:100B8000390718F310926400109263000E949305D5
:0E0B9000DF91CF911F910F910895F894FFCF40
:00000001FF
